:0800000045C0FECFFDCFFCCF8F
:10000800FBCFFACFF9CFF8CFF7CFF6CFF5CFF4CFB4
:10001800F3CFF2CFF1CFF0CFEFCF61C2EDCF102702
:10002800E80364000A00010000100001100001004C
:10003800000000004E6869657420646F3A2000442F
:100048006F20616D3A20000080C0070001002D4E2E
:10005800414E00494E4600000100020038000200EF
:1000680004003A000B0060013C0008006B014700E7
:1000780002008B01500001007501520001009B0134
:1000880054000000F894EE27ECBBF1E0FBBFEBBF97
:10009800E5BF8DE0A2E0BB27ED938A95E9F780E004
:1000A80094E0A0E6ED930197E9F7E0E6F0E08591AA
:1000B8009591009761F0A591B59105901590BF01B4
:1000C800F00105900D920197E1F7FB01F0CFEFE504
:1000D800EDBFE4E0EEBFC0E6D1E000C0A4E6B0E0CA
:1000E80070D1A0E145D1789439D469D0EC83FD83EF
:1000F8006E837F833ED412D749F040D4A0E0FBD072
:10010800A0E6B1E026D135D43CD403C0F201319643
:100118002F0166D03FD440D401D749F02FD4A1E0B5
:10012800EAD0ABE6B1E015D137D42BD403C0F20145
:1001380031962F01A42D6BD0A4E630D42896D4CFC5
:10014800FFCFAA9325972CD4E0E0EB83EC83EED67F
:1001580000E010E0EF81EA83E0E4EA93FE013396E1
:1001680024D4E2E0EA93E0E0F0E01FD4A0E051D12B
:10017800A4E614D4E0E4EA93FE01359616D4FED33F
:10018800E6E7F1E012D4A3E044D1E030A1F0B09169
:100198007601A0E0E0917701F0E0EA2BFB2B8F01DC
:1001A8001A930A93A091780153D0E03019F0E0E057
:1001B800F0E002C00C7FF801C0D628960895CED38F
:1001C800B5D6A3EFF5D359F0F8D3A2E5B8EB8FE293
:1001D8009BE3F8D3A6E6B6E68BE392E4F9D310C026
:1001E800BDD3A4D6A5EFE4D359F0E7D3A0E0B0E09F
:1001F8008AEF9AE3E7D3A0E0B0E080EC90E4E8D39C
:10020800EA81FB816C817D8198D62A960895AA930C
:100218008DD610E000E0AA81B0E0EAE0F0E037D641
:100228001E2FAA81BB27EAE0E19FF00135D60E2FE9
:10023800EEE0EA93A1E05FD0A12FA05D77D0EFE0D8
:10024800EA93A1E058D0A02FA05D70D076D6DFC089
:10025800AA9384D31A9310E0AA85BB858827992787
:10026800E8E0E7D5BBD3E985BED3FF276627772724
:10027800CAD5B4D3E0E0F0E868E970E0B9D310E09B
:100288001031D0F4E12FF0E0A7E1B0E040D6EA1B4E
:10029800FB0BE0D5A1E0B0E080E090E0CAD5A3D3A5
:1002A800ADD53CD621F0A9D39ED3B2D597D3A5D34B
:1002B800CCD59ED31F5FE4CFED8118812C9608958D
:1002C800AA93E8B3E07FAE2FE881E295EF70EA2BBE
:1002D800E8BB98D3979A96D3979894D370C0AA936B
:1002E800A881EEDFE881E295E883A881E9DF85E867
:1002F8008A95F1F764C0AA93E881F0E0E557FE4FCC
:10030800E081A981AE0FEBDF79806880229608959D
:10031800A2E0E5DFA3E042D3ACE0E1DFA1E0DFDF6C
:10032800A3E03CD3E0E06E2E7E2E0895AA93A88128
:10033800AA3011F0791438F021D36394A62DDBDFAD
:10034800A881AA30E1F17394959AA881C8DF95989D
:1003580036C0BA93AA931A93A981BA81ED91A98359
:10036800BA831E2FE03019F0A12FE0DFF5CF4EC081
:10037800AA93E7B3EF60E7BB8F9A8D9A8E9A979806
:10038800959896989880E881E058E0938D01E881E7
:10039800E054E0938E01A4E101D338D337D336D3A8
:1003A800A0E28EDF88EC90E00197F1F7A8E297DFF2
:1003B800A4E095DFA5E893DFA6E091DFA9DF219609
:1003C8000895BA93AA931A93689421F8E7E0E09302
:1003D8007501E0E0E0939701E0939801E0939901BB
:1003E800E0939A01AC9AAD9AE6BFE1B1EC7FE1B92E
:1003F800E981FA81A0EABFE037D51E2F183008F04E
:10040800185010B9E6B7E078E564E6BF188123967E
:100418000895AA93249721FE5FC0EA85EE0FE09322
:100428008F01E885F985E0939001F0939101E0E070
:10043800E0937301EF81E0939201ED81FE81E093F7
:100448009301F0939401E0E0E0937401EC81E09370
:100458009501E6E0E09375017894EF81E03079F05A
:10046800E885F9853097C1F1EC81E03021F0AD8164
:10047800BE81109709F001C02FC068940DC0EC81AF
:10048800E03029F1ED81FE81309731F1E0918F0163
:10049800E160E0938F01E89420F8E89421F8E6B74A
:1004A800EF70E06AE6BFE0E2F1EA67E070E072D27E
:1004B80021FC0DC071D23197604070406BD231F48D
:1004C800E5E0E0937501689421F806C0F1CFA091AA
:1004D8007501E0E0C4D401C0E0E02B9608950A92CB
:1004E8001A92FA926A937A938A939A93AA93BA93EE
:1004F800EA93FA93EFB7EA9315D510917401009136
:1005080073013091920120917501E12FA09193011F
:10051800B0919401F0E0EA0FFB1FAF01E1B1E87F71
:10052800E83011F420E002C0E03119F4E0918F01C5
:1005380010C0E83111F0E83221F5031780F4E02FFC
:100548000F5FA0919001B0919101F0E0AE0FBF1F35
:10055800EC91E3B9E6B7EF70E068E6BF11C0E0914F
:1005680095011E1760F4E0918F01E160E0938F011F
:10057800E89420F8E6B7EF70E06AE6BFFBC033C046
:10058800F9C0E03529F4E3B1DA01EC931F5F02C04A
:10059800E03471F4E0919501E1501E1720F0E6B7C0
:1005A800EF70E06803C0E6B7EF70E06CE6BFE2C04A
:1005B800E83529F4E3B1DA01EC931F5F02C0E032B9
:1005C80009F402C0E03309F402C0E83469F42030C9
:1005D80051F420FE03C0031728F005C0E0919501EF
:1005E8001E1708F424E0C0C0E83329F422E0E6B777
:1005F800EF70E068BCC0E83611F0E83711F422E08B
:1006080005C0E03611F0E03791F420E010E0E894FE
:1006180020F8E0919601E03029F421E0E6B7EF7088
:10062800E06803C0E6B7EF70E06CE6BFA3C0E0384F
:1006380011F0E03929F520FE02C021E095C0E3B1B0
:10064800DA01EC931F5FE09196011E17B0F4E09178
:100658009701F0919801309711F426E085C0A0E049
:10066800E0919701F09198010995E03029F0E6B7FB
:10067800EF70E06CE6BF7EC002C0689420F802C04C
:10068800E83809F402C0E83929F4E6B7EF70E06801
:10069800E6BF70C0E03AA9F4E6B7EF70E06CE6BFD9
:1006A800689421F8E0919701F0919801309739F01A
:1006B800A1E0E0919701F0919801099501C026E029
:1006C80059C0E03B11F422E002C0E83AB9F4E091E5
:1006D8009901F0919A01309759F0A0E0E0919901C1
:1006E800F0919A0109953E2FE03011F020E002C008
:1006F80026E03AC000E0E89420F802C0E83BE1F4C4
:1007080020FE02C021E030C0E02F0F5FA0919001D1
:10071800B0919101F0E0AE0FBF1FEC91E3B9031760
:1007280020F4E6B7EF70E06C05C0689420F8E6B7EF
:10073800EF70E068E6BF1EC0E03C11F0E83C89F4C9
:10074800E6B7EF70E06CE6BFE0919901F0919A018D
:10075800309731F0A1E0E0919901F0919A01099563
:1007680007C0E03039F423E0E6B7EF70E06DE6BF8C
:10077800689421F810937401009373012093750114
:1007880030939201D6D32696E991EFBFF991E9917A
:10079800B991A9919991899179916991F990199053
:1007A80009901895BA93AA932497FAD0EFE3EB83AC
:1007B800BDD3EB85FC85EF3FAFEFFA0729F42DD1C8
:1007C800A6E5B0E07ED07AC0EF3FAFE7FA0729F49C
:1007D80024D1A7E5B0E075D071C0AC85AA2332F466
:1007E8001FD163D122D126D1EDE2EC93A885A730A1
:1007F80010F0E6E0E8871885E12F1150E03021F08D
:1008080020D124D129D1F8CF2CD1F5D10ED110E0A7
:10081800E0E0F0E060E87FE31FD123D1CFD260F0C1
:1008280010D128D119D11F5F173228F0F6D0ABE5C7
:10083800B0E047D043C0F1CF103021F4FBD0E0E363
:10084800EC931EC0E12F1150E030D1F0FAD0FED069
:10085800A0E0B0E080E09FE3CED1DF01CB016ED015
:10086800FBD0FFD066D254D10E2FE4D009D1E9D005
:10087800F1D287D110D20AD144D3B6D1D6D0E2CFA3
:10088800E885E030B9F0D6D0EEE2EC93E885E150A7
:10089800E887EF5F79F0FAD0EDD0C7D0C1D038D172
:1008A8000E2FC8D0EDD0F2D0D5D26BD12AD39CD19F
:1008B800BCD0ECCFAE81BF81E0E0EC933ED32D9667
:1008C8000895BA93AA93E991F991A991B991CD01A3
:1008D80005900D920020E1F7FC0108950DD37B816E
:1008E8006A81F981E88177FB770F67FD7160972F3F
:1008F8009E5781F078F0983190F4AA27BB27882773
:1009080008948795B795A7959A95D1F7EA23FB237D
:10091800682305C0E8947727EE27FF2766276F77B7
:10092800769508F4606877F9A991B99189919991B8
:10093800EA17FB076807790797FB0895DDD2CDD240
:10094800CDDF28D011F428D007C0EEF725D0A0E0DD
:10095800B0E080E89FE348D1249608952897E0E026
:10096800E883E983EA83EB83EC83ED83EE83EF830B
:100978000895EC81FD816E817F810895E0E0EA931E
:100988000895B5D2E3E0EA93ABE7B1E00BDFABE75C
:10099800B1E0DFCCA7D208959BD20895B0E07BC028
:1009A800E0E0E883E983EA830895FA93EA930895F7
:1009B800C8DB8F01002E012A0895F80166277727E2
:1009C800E0D0089568D1EE83FF836887798708951A
:1009D8000BD1EA83FB836C837D830895ED83FE83CB
:1009E8006F8378870895AD81BE818F81988508953A
:1009F800E983FA836B837C830895E981FA816B81AB
:100A08007C8108958DE08A95F1F70895A0E358DC7C
:100A180088EC90E00197F1F70895EE81FF81C5CF4A
:100A2800E985FA856B857C850895E987FA876B8760
:100A38007C870895AE81BF811196AE83BF831197DD
:100A48000895AA81BB818C819D810895EDECFCEC11
:100A58006CEC7DE320D10895EA83FB836C837D836E
:100A68000895EA81FB816C817D81A985BA858B8592
:100A78009C850895E0E0F0E060E271E40CD108950F
:100A8800E02FE05DEC93E02FF0E00895A985BA85AA
:100A98008B859C850895109639F080ED97E0019735
:100AA800F1F7A8951197C9F70895309760407040FD
:100AB80009F070580895552342F4503811F4E0FFB6
:100AC80004C03196691F791F6BF050E8572711F45D
:100AD8005F93CFC05F3F31F0660F000C5795679565
:100AE800752F08955F9300200AF0CFC0C8C050E862
:100AF800192E1522880F991F9527550F879550E8AD
:100B0800072E0522660F771F7527550F67950895DD
:100B1800689401C0E8945F93F2DF703818F07F3F63
:100B280008F4A7C056E1571BAAF4519558300EF4A3
:100B3800593030F0EFEFFFEF6FEF7FE777F91AC02A
:100B480077275523B9F0EE0FFF1F661F771F5A95B9
:100B5800D1F710C07727583028F0EF2FF62F672FDE
:100B68005850F9CF552331F076956795F795E79565
:100B78005A95D1F700200AF454D15F9108956894EA
:100B880001C0E894309760407040B1F0002426F02E
:100B9800772312F4009445D1172E7EE1112032F00C
:100BA8007A95EE0FFF1F661F111CF9CFEF2FF62F56
:100BB800612D5F938ADF5F9108954F93AF01FD0127
:100BC800DA01AB01BC01CA01402D012C142E4F9152
:100BD8000895EA0FFB1F681F0895E095F09560954A
:100BE800EF5FFF4F6F4F08955F9381DF903871F18A
:100BF80050E8152604C05F937ADF903839F17038D1
:100C080021F1572F591B2BF112F4D7DFFACF5831A6
:100C180018F0AA27BB278827583028F0AB2FB82F01
:100C280088275850F9CF552329F08695B795A79569
:100C38005A95D9F7502D512572F0CBDF38F46795C6
:100C4800F795E795739513F420C0B7DF3EDF5F9102
:100C58000895D8F7FBCFEA1BFB0B680B51F010F493
:100C68000094BBDF662392F3EE0FFF1F661F7A9591
:100C7800CBF7EE27FF27662777275F910895EFEFD9
:100C8800FFEF6FE77FEF5F910895EFEFFFEF6FE7FB
:100C98007FE75F9108955F932ADF703851F39038AA
:100CA80041F301240894791F23F41CF300203AF33C
:100CB800ECCF0F921F932F933F934F931127222727
:100CC8009927689FA0018F9F302D410D591F6B9F59
:100CD800300D411D591F8E9F27D0BF9F25D06A9F79
:100CE80023D0BE9F1DD0AF9F1BD0AE9F110D291FD3
:100CF800391F491F591FE32FF42F652F522F4F918A
:100D08003F912F911F910F9066232AF0550FEE1FE8
:100D1800FF1F661F02C073954BF2CDDE5F910895E9
:100D2800100D211D391F02C0200D311D491F591FEB
:100D380008955F93DCDE703821F411200AF49FCF08
:100D4800A4CF903809F495CF01240894970B1BF48D
:100D5800D4F30020F3CF792F1F932F933F934F9312
:100D680011241127222733274427552790E2AE174D
:100D7800BF078607410730F0AE1BBF0B860B410B40
:100D8800089401C08894551F221F331F111CAA1FE5
:100D9800BB1F881F441F9A9551F7F901612D4F9188
:100DA8003F912F911F91662332F0550FEE1FFF1FC1
:100DB800661F7A9543F27FDE5F91089599239AF032
:100DC800772342F0971748F029F4AE17BF07860734
:100DD80020F031F098948894089598940894089590
:100DE8001894889408957723C2F7971798F3A9F76A
:100DF800EA17FB07680788F399F3ECCFEA23FB238C
:100E0800682379230895EA2BFB2B682B792B089507
:100E1800EA27FB27682779270895F195E195F0409F
:100E28000895F09560957095E195FF4F6F4F7F4F4E
:100E38000895EE230E2EFD01BC0131F0EE0FFF1FC9
:100E4800661F771F0A94D1F7089576956795F795E9
:100E5800E79508956F2F660F660B762F0895EA17AA
:100E6800E1E009F0EE2708950024112490E1AA0F8B
:100E7800BB1F001C111C0E1A1F0A18F40E0E1F1E91
:100E880001C0A1609A9599F7FD01D001089512D08B
:100E9800EBDF0EF4C2DF0895E894B7FF04C0A09515
:100EA800B09511966894F7FDB8DFDEDFFD010EF40A
:100EB800B4DF0895E894F7FF02C0AFDF6894B7FF86
:100EC80006C0A095B095119600F8039400FA08950D
:100ED800E881F9816A817B810895A881B9818A8135
:100EE8009B810895E883F9836A837B8308957A93C5
:100EF8006A93FA93EA9308959A938A93BA93AA9372
:100F08000895182E862F612D192E972F712D1B2EBF
:100F1800BF2FF12D1A2EAE2FE12D08953097604086
:100F2800704008955A934A933A932A931A930A93CE
:100F380008955D814C813B812A811981088108953A
:00000001FF
